{
  "_format": "hh-sol-artifact-1",
  "contractName": "SimpleClassRegistrationSystem",
  "sourceName": "contracts/SimpleClassRegistrationSystem.sol",
  "abi": [
    {
      "inputs": [],
      "stateMutability": "nonpayable",
      "type": "constructor"
    },
    {
      "anonymous": false,
      "inputs": [
        {
          "indexed": false,
          "internalType": "uint256",
          "name": "id",
          "type": "uint256"
        },
        {
          "indexed": false,
          "internalType": "string",
          "name": "name",
          "type": "string"
        }
      ],
      "name": "StudentRegistered",
      "type": "event"
    },
    {
      "anonymous": false,
      "inputs": [
        {
          "indexed": false,
          "internalType": "uint256",
          "name": "id",
          "type": "uint256"
        }
      ],
      "name": "StudentRemoved",
      "type": "event"
    },
    {
      "inputs": [],
      "name": "getAllStudents",
      "outputs": [
        {
          "components": [
            {
              "internalType": "uint256",
              "name": "id",
              "type": "uint256"
            },
            {
              "internalType": "string",
              "name": "name",
              "type": "string"
            },
            {
              "internalType": "bool",
              "name": "isRegistered",
              "type": "bool"
            }
          ],
          "internalType": "struct SimpleClassRegistrationSystem.Student[]",
          "name": "",
          "type": "tuple[]"
        }
      ],
      "stateMutability": "view",
      "type": "function"
    },
    {
      "inputs": [
        {
          "internalType": "uint256",
          "name": "_id",
          "type": "uint256"
        }
      ],
      "name": "getStudent",
      "outputs": [
        {
          "internalType": "uint256",
          "name": "",
          "type": "uint256"
        },
        {
          "internalType": "string",
          "name": "",
          "type": "string"
        }
      ],
      "stateMutability": "view",
      "type": "function"
    },
    {
      "inputs": [
        {
          "internalType": "uint256",
          "name": "_id",
          "type": "uint256"
        },
        {
          "internalType": "string",
          "name": "_name",
          "type": "string"
        }
      ],
      "name": "registerStudent",
      "outputs": [],
      "stateMutability": "nonpayable",
      "type": "function"
    },
    {
      "inputs": [
        {
          "internalType": "uint256",
          "name": "_id",
          "type": "uint256"
        }
      ],
      "name": "removeStudent",
      "outputs": [],
      "stateMutability": "nonpayable",
      "type": "function"
    }
  ],
  "bytecode": "0x6080604052348015600f57600080fd5b50336000806101000a81548173ffffffffffffffffffffffffffffffffffffffff021916908373ffffffffffffffffffffffffffffffffffffffff1602179055506111d48061005f6000396000f3fe608060405234801561001057600080fd5b506004361061004c5760003560e01c80633f9586d414610051578063642f91631461006d5780636af838451461009e578063e9e30927146100ba575b600080fd5b61006b6004803603810190610066919061097d565b6100d8565b005b610087600480360381019061008291906109d9565b6102bc565b604051610095929190610a94565b60405180910390f35b6100b860048036038101906100b391906109d9565b610410565b005b6100c2610595565b6040516100cf9190610c4a565b60405180910390f35b60008054906101000a900473ffffffffffffffffffffffffffffffffffffffff1673ffffffffffffffffffffffffffffffffffffffff163373ffffffffffffffffffffffffffffffffffffffff1614610166576040517f08c379a000000000000000000000000000000000000000000000000000000000815260040161015d90610cde565b60405180910390fd5b6002600083815260200190815260200160002060020160009054906101000a900460ff16156101ca576040517f08c379a00000000000000000000000000000000000000000000000000000000081526004016101c190610d4a565b60405180910390fd5b6040518060600160405280838152602001828152602001600115158152506002600084815260200190815260200160002060008201518160000155602082015181600101908161021a9190610f76565b5060408201518160020160006101000a81548160ff02191690831515021790555090505060038290806001815401808255809150506001900390600052602060002001600090919091909150556001600081548092919061027a90611077565b91905055507f82972a188d7a560cf772804ac1cadfb42df2654ff1ded99159259c287ead263082826040516102b0929190610a94565b60405180910390a15050565b600060606002600084815260200190815260200160002060020160009054906101000a900460ff16610323576040517f08c379a000000000000000000000000000000000000000000000000000000000815260040161031a9061110b565b60405180910390fd5b6000600260008581526020019081526020016000206040518060600160405290816000820154815260200160018201805461035d90610d99565b80601f016020809104026020016040519081016040528092919081815260200182805461038990610d99565b80156103d65780601f106103ab576101008083540402835291602001916103d6565b820191906000526020600020905b8154815290600101906020018083116103b957829003601f168201915b505050505081526020016002820160009054906101000a900460ff1615151515815250509050806000015181602001519250925050915091565b60008054906101000a900473ffffffffffffffffffffffffffffffffffffffff1673ffffffffffffffffffffffffffffffffffffffff163373ffffffffffffffffffffffffffffffffffffffff161461049e576040517f08c379a000000000000000000000000000000000000000000000000000000000815260040161049590610cde565b60405180910390fd5b6002600082815260200190815260200160002060020160009054906101000a900460ff16610501576040517f08c379a00000000000000000000000000000000000000000000000000000000081526004016104f89061110b565b60405180910390fd5b6002600082815260200190815260200160002060008082016000905560018201600061052d919061076d565b6002820160006101000a81549060ff02191690555050600160008154809291906105569061112b565b91905055507f59341c48fd0b57ee9c153818be62372ef211cc499da6c2c6d5b8fe49721f36c58160405161058a9190611154565b60405180910390a150565b6060600060038054905067ffffffffffffffff8111156105b8576105b7610852565b5b6040519080825280602002602001820160405280156105f157816020015b6105de6107ad565b8152602001906001900390816105d65790505b5090506000805b6003805490508110156107615760006003828154811061061b5761061a61116f565b5b906000526020600020015490506002600082815260200190815260200160002060020160009054906101000a900460ff161561075357600260008281526020019081526020016000206040518060600160405290816000820154815260200160018201805461068990610d99565b80601f01602080910402602001604051908101604052809291908181526020018280546106b590610d99565b80156107025780601f106106d757610100808354040283529160200191610702565b820191906000526020600020905b8154815290600101906020018083116106e557829003601f168201915b505050505081526020016002820160009054906101000a900460ff1615151515815250508484815181106107395761073861116f565b5b6020026020010181905250828061074f90611077565b9350505b5080806001019150506105f8565b50808252819250505090565b50805461077990610d99565b6000825580601f1061078b57506107aa565b601f0160209004906000526020600020908101906107a991906107d0565b5b50565b604051806060016040528060008152602001606081526020016000151581525090565b5b808211156107e95760008160009055506001016107d1565b5090565b6000604051905090565b600080fd5b600080fd5b6000819050919050565b61081481610801565b811461081f57600080fd5b50565b6000813590506108318161080b565b92915050565b600080fd5b600080fd5b6000601f19601f8301169050919050565b7f4e487b7100000000000000000000000000000000000000000000000000000000600052604160045260246000fd5b61088a82610841565b810181811067ffffffffffffffff821117156108a9576108a8610852565b5b80604052505050565b60006108bc6107ed565b90506108c88282610881565b919050565b600067ffffffffffffffff8211156108e8576108e7610852565b5b6108f182610841565b9050602081019050919050565b82818337600083830152505050565b600061092061091b846108cd565b6108b2565b90508281526020810184848401111561093c5761093b61083c565b5b6109478482856108fe565b509392505050565b600082601f83011261096457610963610837565b5b813561097484826020860161090d565b91505092915050565b60008060408385031215610994576109936107f7565b5b60006109a285828601610822565b925050602083013567ffffffffffffffff8111156109c3576109c26107fc565b5b6109cf8582860161094f565b9150509250929050565b6000602082840312156109ef576109ee6107f7565b5b60006109fd84828501610822565b91505092915050565b610a0f81610801565b82525050565b600081519050919050565b600082825260208201905092915050565b60005b83811015610a4f578082015181840152602081019050610a34565b60008484015250505050565b6000610a6682610a15565b610a708185610a20565b9350610a80818560208601610a31565b610a8981610841565b840191505092915050565b6000604082019050610aa96000830185610a06565b8181036020830152610abb8184610a5b565b90509392505050565b600081519050919050565b600082825260208201905092915050565b6000819050602082019050919050565b610af981610801565b82525050565b600082825260208201905092915050565b6000610b1b82610a15565b610b258185610aff565b9350610b35818560208601610a31565b610b3e81610841565b840191505092915050565b60008115159050919050565b610b5e81610b49565b82525050565b6000606083016000830151610b7c6000860182610af0565b5060208301518482036020860152610b948282610b10565b9150506040830151610ba96040860182610b55565b508091505092915050565b6000610bc08383610b64565b905092915050565b6000602082019050919050565b6000610be082610ac4565b610bea8185610acf565b935083602082028501610bfc85610ae0565b8060005b85811015610c385784840389528151610c198582610bb4565b9450610c2483610bc8565b925060208a01995050600181019050610c00565b50829750879550505050505092915050565b60006020820190508181036000830152610c648184610bd5565b905092915050565b7f4f6e6c792061646d696e2063616e20706572666f726d2074686973206163746960008201527f6f6e000000000000000000000000000000000000000000000000000000000000602082015250565b6000610cc8602283610a20565b9150610cd382610c6c565b604082019050919050565b60006020820190508181036000830152610cf781610cbb565b9050919050565b7f53747564656e7420616c72656164792072656769737465726564000000000000600082015250565b6000610d34601a83610a20565b9150610d3f82610cfe565b602082019050919050565b60006020820190508181036000830152610d6381610d27565b9050919050565b7f4e487b7100000000000000000000000000000000000000000000000000000000600052602260045260246000fd5b60006002820490506001821680610db157607f821691505b602082108103610dc457610dc3610d6a565b5b50919050565b60008190508160005260206000209050919050565b60006020601f8301049050919050565b600082821b905092915050565b600060088302610e2c7fffffffffffffffffffffffffffffffffffffffffffffffffffffffffffffffff82610def565b610e368683610def565b95508019841693508086168417925050509392505050565b6000819050919050565b6000610e73610e6e610e6984610801565b610e4e565b610801565b9050919050565b6000819050919050565b610e8d83610e58565b610ea1610e9982610e7a565b848454610dfc565b825550505050565b600090565b610eb6610ea9565b610ec1818484610e84565b505050565b5b81811015610ee557610eda600082610eae565b600181019050610ec7565b5050565b601f821115610f2a57610efb81610dca565b610f0484610ddf565b81016020851015610f13578190505b610f27610f1f85610ddf565b830182610ec6565b50505b505050565b600082821c905092915050565b6000610f4d60001984600802610f2f565b1980831691505092915050565b6000610f668383610f3c565b9150826002028217905092915050565b610f7f82610a15565b67ffffffffffffffff811115610f9857610f97610852565b5b610fa28254610d99565b610fad828285610ee9565b600060209050601f831160018114610fe05760008415610fce578287015190505b610fd88582610f5a565b865550611040565b601f198416610fee86610dca565b60005b8281101561101657848901518255600182019150602085019450602081019050610ff1565b86831015611033578489015161102f601f891682610f3c565b8355505b6001600288020188555050505b505050505050565b7f4e487b7100000000000000000000000000000000000000000000000000000000600052601160045260246000fd5b600061108282610801565b91507fffffffffffffffffffffffffffffffffffffffffffffffffffffffffffffffff82036110b4576110b3611048565b5b600182019050919050565b7f53747564656e74206e6f7420666f756e64000000000000000000000000000000600082015250565b60006110f5601183610a20565b9150611100826110bf565b602082019050919050565b60006020820190508181036000830152611124816110e8565b9050919050565b600061113682610801565b91506000820361114957611148611048565b5b600182039050919050565b60006020820190506111696000830184610a06565b92915050565b7f4e487b7100000000000000000000000000000000000000000000000000000000600052603260045260246000fdfea264697066735822122085ec75d9dcc970943b9dde6c5d562a3d30f416a31a3dd0cf07bf711cf4527e7164736f6c634300081c0033",
  "linkReferences": {},
  "deployedLinkReferences": {}
}